:020000020000FC
:040000000C942E002E
:04001C000C946700D9
:100058000C947E0000E20093A00004E00093930457
:1000680001E00093000605E0009302060BE0009310
:10007800060601E0009308060FEF0CB900EF08B977
:1000880000E000930828D8E2C0E0088309830A83C7
:100098000B830FEFB8E2A4E00D930D930D930D932E
:1000A80000E00093010A01E000930A0A00E40093CB
:1000B800260A00E00093270A0DE00093000A7894CE
:1000C8006DD02CD0FECF0F930FB70F931F932F93A4
:1000D8003F934F93DF93CF937ED001E000930B0AB9
:1000E800CF91DF914F913F912F911F910F910FBFAA
:1000F8000F9118950F930FB70F931F932F933F935B
:100108004F93DF93CF930AD0CF91DF914F913F91D7
:100118002F911F910F910FBF0F9118950091100605
:100128001091110624EC39E02AD0232F342F452FC3
:1001380050E062E0369527956A95E1F781E074EF23
:10014800271B380B022F132F6AD0B8E2A4E02D2DFD
:10015800B7D02D932D2D2695269526952695B0D08A
:100168002D932E2DADD02D932E2D269526952695A3
:100178002695A6D02D9301E00093080608955527EB
:10018800442760E13695279510F4400F511F579585
:100198004795379527956A95B9F7089500E0B8E22D
:1001A800A4E00D930D930D930D9327E20FD00FEF5D
:1001B800B8E2A4E00D930D930D930D9308950FEFFE
:1001C8001EE61A95F1F70A95D9F70895F8DF2A95EA
:1001D8002030E1F70895009108280370102F10933C
:1001E8000828C4E0D8E203950A952991E9F7103068
:1001F80031F0113031F0123031F0133031F04FEE70
:1002080006C04FED04C04FEB02C04FE700C03FEF00
:1002180039B92DB949B913951093082808950F9342
:100228001F932F933F9320E140E040930928409388
:100238000A2840930B28D0900928E0900A28F090CB
:100248000B28000F111FDD1CEE1CFF1CD092092883
:10025800E0920A28F0920B282A9529F43F912F91D1
:100268001F910F910895ECE0F8E232913D5F33FD64
:1002780030833081305D37FD3083E930B1F7F832B3
:10028800A1F7D9CF3295CE2CDF2CEE0CFF1CCC0C6D
:10029800DD1CCC0CDD1CCC0CDD1CEC0CFD1C3F70FB
:1002A800E30E08F4F39408952F70FF24E22E312F03
:1002B800E9DF312FE8DF302FE5DF302FE4DF089565
:1002C8002F70F2E0E8ED00E0E20FF01F24910895AE
:1002D800014F12064C24200F000C086031423038C0
:00000001FF
