:020000020000FC
:1000000000E000B90FEF0CB900EF08B98098819AB1
:100010008998899A00E000930828D8E2C0E0088314
:1000200009830A830B830FEFB8E2A4E00D930D93CD
:100030000D930D932ED002D008D0FCCF06E01EE623
:100040001A95F1F70A95D9F70895009108280370D9
:10005000102F10930828C4E0D8E203950A9529913F
:10006000E9F7103031F0113031F0123031F0133047
:1000700031F04FEE06C04FED04C04FEB02C04FE72A
:1000800000C03FEF39B92DB949B91395109308282D
:100090000895909B089562B1062F30D02A30DCF489
:1000A000D8E2C0E0388149815A81688339834A8324
:1000B0005B83B8E2A4E0088121D010D02D930981A0
:1000C0001DD00CD02D930A8119D008D02D930B810F
:1000D00015D004D02D938998899A08952F70F0E057
:1000E000ECEE00E0E20FF01F24910895014F12069C
:1000F0004C24200F000C08603142303818E0000F0B
:0801000027951A95E1F7089517
:00000001FF
