:020000020000FC
:040000000C94480014
:04001C000C949500AB
:10008C000C947B0000E000B90FEF0CB900EF08B93D
:10009C008098829800E000930828D8E2C0E008839A
:1000AC0009830A830B830FEFB8E2A4E00D930D9341
:1000BC000D930D93009190040260009390040091B5
:1000CC00920402600093920400E00093010A01E0A4
:1000DC0000930A0A00E40093260A00E00093270A22
:1000EC000DE00093000A7894FFCF0F931F932F938A
:1000FC004F93DF93CF930FB70F93F894009189042C
:10010C0000FD48D00091890402FD98D00F910FBFDB
:10011C00CF91DF914F912F911F910F9118950F93C4
:10012C000FB70F931F932F933F934F93DF93CF935F
:10013C000DD001E000930B0ACF91DF914F913F91CD
:10014C002F911F910F910FBF0F91189500910828B7
:10015C000370102F10930828C4E0D8E203950A9579
:10016C002991E9F7103031F0113031F0123031F0C3
:10017C00133031F04FEE06C04FED04C04FEB02C010
:10018C004FE700C03FEF39B92DB949B9139510931A
:10019C000828089502B12ED02F702A30BCF4D8E272
:1001AC00C0E0388149815A81288339834A835B8333
:1001BC00B8E2A4E028810ED02D9329810BD02D9389
:1001CC002A8108D02D932B8105D02D9301E000932B
:1001DC00890408952F70F1E0E0EF00E0E20FF01FCA
:1001EC0024910895014F12064C24200F000C086036
:1001FC003142303818E0000F27951A95E1F7089531
:10020C003295CE2CDF2CEE0CFF1CCC0CDD1CCC0C58
:10021C00DD1CCC0CDD1CEC0CFD1C3F70E30E08F45B
:10022C00F39408952F70FF24E22E312FE9DF312F44
:10023C00E8DF302FE5DF302FE4DF0895D8E2C0E0AF
:10024C001B812A81110F110F110F110F122B098114
:10025C002881000F000F000F000F022B20E0E2DFBF
:10026C00B8E2A4E02E2DB6DF2D932E2D26952695E3
:10027C0026952695AFDF2D932F2DACDF2D932F2DAB
:10028C002695269526952695A5DF2D9304E00093BB
:04029C008904089534
:00000001FF
