:020000020000FC
:100000008098819A8998899A10E010B901D0FECF22
:10001000909B089562B1062F30D02A30DCF4D8E2EC
:10002000C0E0388149815A81688339834A835B8380
:10003000B8E2A4E0088121D010D02D9309811DD011
:100040000CD02D930A8119D008D02D930B8115D097
:1000500004D02D938998899A08952F70F0E0EAE6EC
:1000600000E0E20FF01F24910895014F12064C2486
:10007000200F000C08603142303818E0000F27953F
:060080001A95E1F7089556
:00000001FF
