:020000020000FC
:040000000C9410004C
:10001C000C9436000FEF0CB900EF08B900E0009318
:10002C000828D8E2C0E0088309830A830B830FEF0A
:10003C00B8E2A4E00D930D930D930D9300E00093A3
:10004C00010A01E000930A0A00E40093260A00E08A
:10005C000093270A0DE00093000A789418D0FFCF84
:10006C000F930FB70F931F932F933F934F93DF93E0
:10007C00CF932AD001E000930B0ACF91DF914F91DF
:10008C003F912F911F910F910FBF0F91189500E089
:10009C00B8E2A4E00D930D930D930D9327E20FD0CE
:1000AC000FEFB8E2A4E00D930D930D930D9308950B
:1000BC000FEF1EE61A95F1F70A95D9F70895F8DFB8
:1000CC002A952030E1F70895009108280370102F2D
:1000DC0010930828C4E0D8E203950A952991E9F712
:1000EC00103031F0113031F0123031F0133031F07A
:1000FC004FEE06C04FED04C04FEB02C04FE700C0FF
:10010C003FEF39B92DB949B91395109308280895C3
:00000001FF
