:020000020000FC
:1000000000E000B90FEF0CB900EF08B98098819AB1
:100010008298839A8998899A8B988B9A00E00093AA
:100020000828D8E2C0E0088309830A830B830FEF16
:10003000B8E2A4E00D930D930D930D932FD083D0D0
:1000400002D008D0FBCF06E01EE61A95F1F70A951C
:10005000D9F70895009108280370102F10930828ED
:10006000C4E0D8E203950A952991E9F7103031F000
:10007000113031F0123031F0133031F04FEE06C054
:100080004FED04C04FEB02C04FE700C03FEF39B95E
:100090002DB949B91395109308280895909B089598
:1000A00002B12DD02F702A30BCF4D8E2C0E03881E4
:1000B00049815A81288339834A835B83B8E2A4E06B
:1000C00028810DD02D9329810AD02D932A8107D024
:1000D0002D932B8104D02D938998899A08952F70A0
:1000E000F0E0EEEE00E0E20FF01F24910895014FE2
:1000F00012064C24200F000C08603142303818E002
:10010000000F27951A95E1F708953295CE2CDF2C34
:10011000EE0CFF1CCC0CDD1CCC0CDD1CCC0CDD1C57
:10012000EC0CFD1C3F70E30E08F4F39408952F705F
:10013000FF24E22E312FE9DF312FE8DF302FE5DF1A
:10014000302FE4DF0895929B0895D8E2C0E01B8130
:100150002A81110F110F110F110F122B0981288104
:10016000000F000F000F000F022B20E0E0DFB8E2CD
:10017000A4E02E2DB4DF2D932E2D269526952695C1
:100180002695ADDF2D932F2DAADF2D932F2D2695AC
:10019000269526952695A3DF2D938B988B9A089507
:00000001FF
